{
  "_format": "hh-sol-artifact-1",
  "contractName": "Election",
  "sourceName": "contracts/Election.sol",
  "abi": [
    {
      "inputs": [],
      "stateMutability": "nonpayable",
      "type": "constructor"
    },
    {
      "inputs": [],
      "name": "candidateCount",
      "outputs": [
        {
          "internalType": "uint256",
          "name": "",
          "type": "uint256"
        }
      ],
      "stateMutability": "view",
      "type": "function"
    },
    {
      "inputs": [],
      "name": "getAllDetails",
      "outputs": [
        {
          "components": [
            {
              "internalType": "uint256",
              "name": "id",
              "type": "uint256"
            },
            {
              "internalType": "string",
              "name": "name",
              "type": "string"
            },
            {
              "internalType": "uint256",
              "name": "voteCount",
              "type": "uint256"
            }
          ],
          "internalType": "struct Election.Candidate[]",
          "name": "",
          "type": "tuple[]"
        }
      ],
      "stateMutability": "view",
      "type": "function"
    },
    {
      "inputs": [
        {
          "internalType": "uint256",
          "name": "_candidateID",
          "type": "uint256"
        }
      ],
      "name": "vote",
      "outputs": [],
      "stateMutability": "nonpayable",
      "type": "function"
    },
    {
      "inputs": [
        {
          "internalType": "address",
          "name": "",
          "type": "address"
        }
      ],
      "name": "voters",
      "outputs": [
        {
          "internalType": "bool",
          "name": "",
          "type": "bool"
        }
      ],
      "stateMutability": "view",
      "type": "function"
    }
  ],
  "bytecode": "0x60806040523480156200001157600080fd5b506200005d6040518060400160405280601681526020017f4920414d204120534d41525420434f4e545241435421000000000000000000008152506200013560201b620004c41760201c565b620000a36040518060400160405280600b81526020017f43616e6469646174652030000000000000000000000000000000000000000000815250620001d860201b60201c565b620000e96040518060400160405280600b81526020017f43616e6469646174652031000000000000000000000000000000000000000000815250620001d860201b60201c565b6200012f6040518060400160405280600b81526020017f43616e6469646174652032000000000000000000000000000000000000000000815250620001d860201b60201c565b6200064a565b620001d5816040516024016200014c919062000494565b6040516020818303038152906040527f41304fac000000000000000000000000000000000000000000000000000000007bffffffffffffffffffffffffffffffffffffffffffffffffffffffff19166020820180517bffffffffffffffffffffffffffffffffffffffffffffffffffffffff8381831617835250505050620002c360201b60201c565b50565b600060405180606001604052806002548152602001838152602001600081525090806001815401808255809150506001900390600052602060002090600302016000909190919091506000820151816000015560208201518160010190805190602001906200024992919062000392565b50604082015181600201555050620002a46040518060400160405280601581526020017f43616e6469646174652025642063726561746564210000000000000000000000815250600254620002ec60201b6200055d1760201c565b600160026000828254620002b9919062000508565b9250508190555050565b60008151905060006a636f6e736f6c652e6c6f679050602083016000808483855afa5050505050565b6200038e828260405160240162000305929190620004b8565b6040516020818303038152906040527f9710a9d0000000000000000000000000000000000000000000000000000000007bffffffffffffffffffffffffffffffffffffffffffffffffffffffff19166020820180517bffffffffffffffffffffffffffffffffffffffffffffffffffffffff8381831617835250505050620002c360201b60201c565b5050565b828054620003a090620005a5565b90600052602060002090601f016020900481019282620003c4576000855562000410565b82601f10620003df57805160ff191683800117855562000410565b8280016001018555821562000410579182015b828111156200040f578251825591602001919060010190620003f2565b5b5090506200041f919062000423565b5090565b5b808211156200043e57600081600090555060010162000424565b5090565b60006200044f82620004ec565b6200045b8185620004f7565b93506200046d8185602086016200056f565b620004788162000639565b840191505092915050565b6200048e8162000565565b82525050565b60006020820190508181036000830152620004b0818462000442565b905092915050565b60006040820190508181036000830152620004d4818562000442565b9050620004e5602083018462000483565b9392505050565b600081519050919050565b600082825260208201905092915050565b6000620005158262000565565b9150620005228362000565565b9250827fffffffffffffffffffffffffffffffffffffffffffffffffffffffffffffffff038211156200055a5762000559620005db565b5b828201905092915050565b6000819050919050565b60005b838110156200058f57808201518184015260208101905062000572565b838111156200059f576000848401525b50505050565b60006002820490506001821680620005be57607f821691505b60208210811415620005d557620005d46200060a565b5b50919050565b7f4e487b7100000000000000000000000000000000000000000000000000000000600052601160045260246000fd5b7f4e487b7100000000000000000000000000000000000000000000000000000000600052602260045260246000fd5b6000601f19601f8301169050919050565b610be0806200065a6000396000f3fe608060405234801561001057600080fd5b506004361061004c5760003560e01c80630121b93f14610051578063a3ec138d1461006d578063a9a981a31461009d578063ccc5d7d4146100bb575b600080fd5b61006b60048036038101906100669190610714565b6100d9565b005b610087600480360381019061008291906106eb565b610399565b60405161009491906108d7565b60405180910390f35b6100a56103b9565b6040516100b29190610989565b60405180910390f35b6100c36103bf565b6040516100d091906108b5565b60405180910390f35b6000811180156100eb57506002548111155b6100f457600080fd5b60018060003373ffffffffffffffffffffffffffffffffffffffff1673ffffffffffffffffffffffffffffffffffffffff16815260200190815260200160002060006101000a81548160ff021916908315150217905550600160008281548110610187577f4e487b7100000000000000000000000000000000000000000000000000000000600052603260045260246000fd5b906000526020600020906003020160020160008282546101a79190610a0a565b9250508190555061030c6040518060400160405280601981526020017f564f54454420464f522043414e4449444154452025642025730000000000000081525060008381548110610221577f4e487b7100000000000000000000000000000000000000000000000000000000600052603260045260246000fd5b9060005260206000209060030201600001546000848154811061026d577f4e487b7100000000000000000000000000000000000000000000000000000000600052603260045260246000fd5b9060005260206000209060030201600101805461028990610adb565b80601f01602080910402602001604051908101604052809291908181526020018280546102b590610adb565b80156103025780601f106102d757610100808354040283529160200191610302565b820191906000526020600020905b8154815290600101906020018083116102e557829003601f168201915b50505050506105f9565b6103966040518060400160405280601081526020017f4e554d424552204f4620564f54455320000000000000000000000000000000008152506000838154811061037f577f4e487b7100000000000000000000000000000000000000000000000000000000600052603260045260246000fd5b90600052602060002090600302016002015461055d565b50565b60016020528060005260406000206000915054906101000a900460ff1681565b60025481565b60606000805480602002602001604051908101604052809291908181526020016000905b828210156104bb57838290600052602060002090600302016040518060600160405290816000820154815260200160018201805461042090610adb565b80601f016020809104026020016040519081016040528092919081815260200182805461044c90610adb565b80156104995780601f1061046e57610100808354040283529160200191610499565b820191906000526020600020905b81548152906001019060200180831161047c57829003601f168201915b50505050508152602001600282015481525050815260200190600101906103e3565b50505050905090565b61055a816040516024016104d891906108f2565b6040516020818303038152906040527f41304fac000000000000000000000000000000000000000000000000000000007bffffffffffffffffffffffffffffffffffffffffffffffffffffffff19166020820180517bffffffffffffffffffffffffffffffffffffffffffffffffffffffff8381831617835250505050610698565b50565b6105f58282604051602401610573929190610914565b6040516020818303038152906040527f9710a9d0000000000000000000000000000000000000000000000000000000007bffffffffffffffffffffffffffffffffffffffffffffffffffffffff19166020820180517bffffffffffffffffffffffffffffffffffffffffffffffffffffffff8381831617835250505050610698565b5050565b61069383838360405160240161061193929190610944565b6040516020818303038152906040527fa3f5c739000000000000000000000000000000000000000000000000000000007bffffffffffffffffffffffffffffffffffffffffffffffffffffffff19166020820180517bffffffffffffffffffffffffffffffffffffffffffffffffffffffff8381831617835250505050610698565b505050565b60008151905060006a636f6e736f6c652e6c6f679050602083016000808483855afa5050505050565b6000813590506106d081610b7c565b92915050565b6000813590506106e581610b93565b92915050565b6000602082840312156106fd57600080fd5b600061070b848285016106c1565b91505092915050565b60006020828403121561072657600080fd5b6000610734848285016106d6565b91505092915050565b60006107498383610847565b905092915050565b600061075c826109b4565b61076681856109d7565b935083602082028501610778856109a4565b8060005b858110156107b45784840389528151610795858261073d565b94506107a0836109ca565b925060208a0199505060018101905061077c565b50829750879550505050505092915050565b6107cf81610a72565b82525050565b60006107e0826109bf565b6107ea81856109e8565b93506107fa818560208601610aa8565b61080381610b6b565b840191505092915050565b6000610819826109bf565b61082381856109f9565b9350610833818560208601610aa8565b61083c81610b6b565b840191505092915050565b600060608301600083015161085f6000860182610897565b506020830151848203602086015261087782826107d5565b915050604083015161088c6040860182610897565b508091505092915050565b6108a081610a9e565b82525050565b6108af81610a9e565b82525050565b600060208201905081810360008301526108cf8184610751565b905092915050565b60006020820190506108ec60008301846107c6565b92915050565b6000602082019050818103600083015261090c818461080e565b905092915050565b6000604082019050818103600083015261092e818561080e565b905061093d60208301846108a6565b9392505050565b6000606082019050818103600083015261095e818661080e565b905061096d60208301856108a6565b818103604083015261097f818461080e565b9050949350505050565b600060208201905061099e60008301846108a6565b92915050565b6000819050602082019050919050565b600081519050919050565b600081519050919050565b6000602082019050919050565b600082825260208201905092915050565b600082825260208201905092915050565b600082825260208201905092915050565b6000610a1582610a9e565b9150610a2083610a9e565b9250827fffffffffffffffffffffffffffffffffffffffffffffffffffffffffffffffff03821115610a5557610a54610b0d565b5b828201905092915050565b6000610a6b82610a7e565b9050919050565b60008115159050919050565b600073ffffffffffffffffffffffffffffffffffffffff82169050919050565b6000819050919050565b60005b83811015610ac6578082015181840152602081019050610aab565b83811115610ad5576000848401525b50505050565b60006002820490506001821680610af357607f821691505b60208210811415610b0757610b06610b3c565b5b50919050565b7f4e487b7100000000000000000000000000000000000000000000000000000000600052601160045260246000fd5b7f4e487b7100000000000000000000000000000000000000000000000000000000600052602260045260246000fd5b6000601f19601f8301169050919050565b610b8581610a60565b8114610b9057600080fd5b50565b610b9c81610a9e565b8114610ba757600080fd5b5056fea264697066735822122093cad31b248b18e95437f945e1b4278c1c5568952036400e5ba9b9edcb1bba3a64736f6c63430008040033",
  "linkReferences": {},
  "deployedLinkReferences": {}
}