{
  "_format": "hh-sol-artifact-1",
  "contractName": "Election",
  "sourceName": "contracts/Election.sol",
  "abi": [
    {
      "inputs": [],
      "stateMutability": "nonpayable",
      "type": "constructor"
    },
    {
      "inputs": [],
      "name": "candidateCount",
      "outputs": [
        {
          "internalType": "uint256",
          "name": "",
          "type": "uint256"
        }
      ],
      "stateMutability": "view",
      "type": "function"
    },
    {
      "inputs": [],
      "name": "getAllDetails",
      "outputs": [
        {
          "components": [
            {
              "internalType": "uint256",
              "name": "id",
              "type": "uint256"
            },
            {
              "internalType": "string",
              "name": "name",
              "type": "string"
            },
            {
              "internalType": "uint256",
              "name": "voteCount",
              "type": "uint256"
            }
          ],
          "internalType": "struct Election.Candidate[]",
          "name": "",
          "type": "tuple[]"
        }
      ],
      "stateMutability": "view",
      "type": "function"
    },
    {
      "inputs": [
        {
          "internalType": "uint256",
          "name": "_candidateID",
          "type": "uint256"
        }
      ],
      "name": "vote",
      "outputs": [],
      "stateMutability": "nonpayable",
      "type": "function"
    },
    {
      "inputs": [
        {
          "internalType": "address",
          "name": "",
          "type": "address"
        }
      ],
      "name": "voters",
      "outputs": [
        {
          "internalType": "bool",
          "name": "",
          "type": "bool"
        }
      ],
      "stateMutability": "view",
      "type": "function"
    }
  ],
  "bytecode": "0x60806040523480156200001157600080fd5b506200005d6040518060400160405280601681526020017f4920414d204120534d41525420434f4e545241435421000000000000000000008152506200017b60201b620005511760201c565b620000a36040518060400160405280600481526020017f4e554c4c000000000000000000000000000000000000000000000000000000008152506200021e60201b60201c565b620000e96040518060400160405280600b81526020017f43616e64696461746520310000000000000000000000000000000000000000008152506200021e60201b60201c565b6200012f6040518060400160405280600b81526020017f43616e64696461746520320000000000000000000000000000000000000000008152506200021e60201b60201c565b620001756040518060400160405280600b81526020017f43616e64696461746520330000000000000000000000000000000000000000008152506200021e60201b60201c565b62000690565b6200021b81604051602401620001929190620004da565b6040516020818303038152906040527f41304fac000000000000000000000000000000000000000000000000000000007bffffffffffffffffffffffffffffffffffffffffffffffffffffffff19166020820180517bffffffffffffffffffffffffffffffffffffffffffffffffffffffff83818316178352505050506200030960201b60201c565b50565b600060405180606001604052806002548152602001838152602001600081525090806001815401808255809150506001900390600052602060002090600302016000909190919091506000820151816000015560208201518160010190805190602001906200028f929190620003d8565b50604082015181600201555050620002ea6040518060400160405280601581526020017f43616e64696461746520256420637265617465642100000000000000000000008152506002546200033260201b620005ea1760201c565b600160026000828254620002ff91906200054e565b9250508190555050565b60008151905060006a636f6e736f6c652e6c6f679050602083016000808483855afa5050505050565b620003d482826040516024016200034b929190620004fe565b6040516020818303038152906040527f9710a9d0000000000000000000000000000000000000000000000000000000007bffffffffffffffffffffffffffffffffffffffffffffffffffffffff19166020820180517bffffffffffffffffffffffffffffffffffffffffffffffffffffffff83818316178352505050506200030960201b60201c565b5050565b828054620003e690620005eb565b90600052602060002090601f0160209004810192826200040a576000855562000456565b82601f106200042557805160ff191683800117855562000456565b8280016001018555821562000456579182015b828111156200045557825182559160200191906001019062000438565b5b50905062000465919062000469565b5090565b5b80821115620004845760008160009055506001016200046a565b5090565b6000620004958262000532565b620004a181856200053d565b9350620004b3818560208601620005b5565b620004be816200067f565b840191505092915050565b620004d481620005ab565b82525050565b60006020820190508181036000830152620004f6818462000488565b905092915050565b600060408201905081810360008301526200051a818562000488565b90506200052b6020830184620004c9565b9392505050565b600081519050919050565b600082825260208201905092915050565b60006200055b82620005ab565b91506200056883620005ab565b9250827fffffffffffffffffffffffffffffffffffffffffffffffffffffffffffffffff03821115620005a0576200059f62000621565b5b828201905092915050565b6000819050919050565b60005b83811015620005d5578082015181840152602081019050620005b8565b83811115620005e5576000848401525b50505050565b600060028204905060018216806200060457607f821691505b602082108114156200061b576200061a62000650565b5b50919050565b7f4e487b7100000000000000000000000000000000000000000000000000000000600052601160045260246000fd5b7f4e487b7100000000000000000000000000000000000000000000000000000000600052602260045260246000fd5b6000601f19601f8301169050919050565b610cd980620006a06000396000f3fe608060405234801561001057600080fd5b506004361061004c5760003560e01c80630121b93f14610051578063a3ec138d1461006d578063a9a981a31461009d578063ccc5d7d4146100bb575b600080fd5b61006b600480360381019061006691906107a1565b6100d9565b005b61008760048036038101906100829190610778565b610426565b6040516100949190610987565b60405180910390f35b6100a5610446565b6040516100b29190610a59565b60405180910390f35b6100c361044c565b6040516100d09190610965565b60405180910390f35b600160003373ffffffffffffffffffffffffffffffffffffffff1673ffffffffffffffffffffffffffffffffffffffff16815260200190815260200160002060009054906101000a900460ff1615610166576040517f08c379a000000000000000000000000000000000000000000000000000000000815260040161015d90610a39565b60405180910390fd5b60008111801561017857506002548111155b61018157600080fd5b60018060003373ffffffffffffffffffffffffffffffffffffffff1673ffffffffffffffffffffffffffffffffffffffff16815260200190815260200160002060006101000a81548160ff021916908315150217905550600160008281548110610214577f4e487b7100000000000000000000000000000000000000000000000000000000600052603260045260246000fd5b906000526020600020906003020160020160008282546102349190610ada565b925050819055506103996040518060400160405280601981526020017f564f54454420464f522043414e44494441544520256420257300000000000000815250600083815481106102ae577f4e487b7100000000000000000000000000000000000000000000000000000000600052603260045260246000fd5b906000526020600020906003020160000154600084815481106102fa577f4e487b7100000000000000000000000000000000000000000000000000000000600052603260045260246000fd5b9060005260206000209060030201600101805461031690610bab565b80601f016020809104026020016040519081016040528092919081815260200182805461034290610bab565b801561038f5780601f106103645761010080835404028352916020019161038f565b820191906000526020600020905b81548152906001019060200180831161037257829003601f168201915b5050505050610686565b6104236040518060400160405280601081526020017f4e554d424552204f4620564f54455320000000000000000000000000000000008152506000838154811061040c577f4e487b7100000000000000000000000000000000000000000000000000000000600052603260045260246000fd5b9060005260206000209060030201600201546105ea565b50565b60016020528060005260406000206000915054906101000a900460ff1681565b60025481565b60606000805480602002602001604051908101604052809291908181526020016000905b828210156105485783829060005260206000209060030201604051806060016040529081600082015481526020016001820180546104ad90610bab565b80601f01602080910402602001604051908101604052809291908181526020018280546104d990610bab565b80156105265780601f106104fb57610100808354040283529160200191610526565b820191906000526020600020905b81548152906001019060200180831161050957829003601f168201915b5050505050815260200160028201548152505081526020019060010190610470565b50505050905090565b6105e78160405160240161056591906109a2565b6040516020818303038152906040527f41304fac000000000000000000000000000000000000000000000000000000007bffffffffffffffffffffffffffffffffffffffffffffffffffffffff19166020820180517bffffffffffffffffffffffffffffffffffffffffffffffffffffffff8381831617835250505050610725565b50565b61068282826040516024016106009291906109c4565b6040516020818303038152906040527f9710a9d0000000000000000000000000000000000000000000000000000000007bffffffffffffffffffffffffffffffffffffffffffffffffffffffff19166020820180517bffffffffffffffffffffffffffffffffffffffffffffffffffffffff8381831617835250505050610725565b5050565b61072083838360405160240161069e939291906109f4565b6040516020818303038152906040527fa3f5c739000000000000000000000000000000000000000000000000000000007bffffffffffffffffffffffffffffffffffffffffffffffffffffffff19166020820180517bffffffffffffffffffffffffffffffffffffffffffffffffffffffff8381831617835250505050610725565b505050565b60008151905060006a636f6e736f6c652e6c6f679050602083016000808483855afa5050505050565b60008135905061075d81610c75565b92915050565b60008135905061077281610c8c565b92915050565b60006020828403121561078a57600080fd5b60006107988482850161074e565b91505092915050565b6000602082840312156107b357600080fd5b60006107c184828501610763565b91505092915050565b60006107d683836108f7565b905092915050565b60006107e982610a84565b6107f38185610aa7565b93508360208202850161080585610a74565b8060005b85811015610841578484038952815161082285826107ca565b945061082d83610a9a565b925060208a01995050600181019050610809565b50829750879550505050505092915050565b61085c81610b42565b82525050565b600061086d82610a8f565b6108778185610ab8565b9350610887818560208601610b78565b61089081610c3b565b840191505092915050565b60006108a682610a8f565b6108b08185610ac9565b93506108c0818560208601610b78565b6108c981610c3b565b840191505092915050565b60006108e1601783610ac9565b91506108ec82610c4c565b602082019050919050565b600060608301600083015161090f6000860182610947565b50602083015184820360208601526109278282610862565b915050604083015161093c6040860182610947565b508091505092915050565b61095081610b6e565b82525050565b61095f81610b6e565b82525050565b6000602082019050818103600083015261097f81846107de565b905092915050565b600060208201905061099c6000830184610853565b92915050565b600060208201905081810360008301526109bc818461089b565b905092915050565b600060408201905081810360008301526109de818561089b565b90506109ed6020830184610956565b9392505050565b60006060820190508181036000830152610a0e818661089b565b9050610a1d6020830185610956565b8181036040830152610a2f818461089b565b9050949350505050565b60006020820190508181036000830152610a52816108d4565b9050919050565b6000602082019050610a6e6000830184610956565b92915050565b6000819050602082019050919050565b600081519050919050565b600081519050919050565b6000602082019050919050565b600082825260208201905092915050565b600082825260208201905092915050565b600082825260208201905092915050565b6000610ae582610b6e565b9150610af083610b6e565b9250827fffffffffffffffffffffffffffffffffffffffffffffffffffffffffffffffff03821115610b2557610b24610bdd565b5b828201905092915050565b6000610b3b82610b4e565b9050919050565b60008115159050919050565b600073ffffffffffffffffffffffffffffffffffffffff82169050919050565b6000819050919050565b60005b83811015610b96578082015181840152602081019050610b7b565b83811115610ba5576000848401525b50505050565b60006002820490506001821680610bc357607f821691505b60208210811415610bd757610bd6610c0c565b5b50919050565b7f4e487b7100000000000000000000000000000000000000000000000000000000600052601160045260246000fd5b7f4e487b7100000000000000000000000000000000000000000000000000000000600052602260045260246000fd5b6000601f19601f8301169050919050565b7f596f752063616e206f6e6c7920766f7465206f6e636521000000000000000000600082015250565b610c7e81610b30565b8114610c8957600080fd5b50565b610c9581610b6e565b8114610ca057600080fd5b5056fea2646970667358221220dc26486b9b52a6e683836706b7e2edeab0acf0649c5c2cc1d852ab40768bdac264736f6c63430008040033",
  "linkReferences": {},
  "deployedLinkReferences": {}
}